{"abi":[{"type":"constructor","inputs":[{"name":"initialOwner","type":"address","internalType":"address"},{"name":"usdc","type":"address","internalType":"address"}],"stateMutability":"nonpayable"},{"type":"function","name":"BPS_DENOM","inputs":[],"outputs":[{"name":"","type":"uint256","internalType":"uint256"}],"stateMutability":"view"},{"type":"function","name":"ENEMY_SCORE","inputs":[],"outputs":[{"name":"","type":"uint256","internalType":"uint256"}],"stateMutability":"view"},{"type":"function","name":"GEM_SCORE","inputs":[],"outputs":[{"name":"","type":"uint256","internalType":"uint256"}],"stateMutability":"view"},{"type":"function","name":"HOUSE_FEE_BPS","inputs":[],"outputs":[{"name":"","type":"uint256","internalType":"uint256"}],"stateMutability":"view"},{"type":"function","name":"INITIAL_HEALTH","inputs":[],"outputs":[{"name":"","type":"uint8","internalType":"uint8"}],"stateMutability":"view"},{"type":"function","name":"JUMP_IMPULSE","inputs":[],"outputs":[{"name":"","type":"int8","internalType":"int8"}],"stateMutability":"view"},{"type":"function","name":"LEVEL_HEIGHT","inputs":[],"outputs":[{"name":"","type":"uint256","internalType":"uint256"}],"stateMutability":"view"},{"type":"function","name":"LEVEL_WIDTH","inputs":[],"outputs":[{"name":"","type":"uint256","internalType":"uint256"}],"stateMutability":"view"},{"type":"function","name":"REVEAL_WINDOW","inputs":[],"outputs":[{"name":"","type":"uint256","internalType":"uint256"}],"stateMutability":"view"},{"type":"function","name":"TERMINAL_VELOCITY","inputs":[],"outputs":[{"name":"","type":"int8","internalType":"int8"}],"stateMutability":"view"},{"type":"function","name":"TICK_DURATION","inputs":[],"outputs":[{"name":"","type":"uint256","internalType":"uint256"}],"stateMutability":"view"},{"type":"function","name":"USDC","inputs":[],"outputs":[{"name":"","type":"address","internalType":"contract IERC20"}],"stateMutability":"view"},{"type":"function","name":"advanceExpired","inputs":[{"name":"runId","type":"uint256","internalType":"uint256"}],"outputs":[],"stateMutability":"nonpayable"},{"type":"function","name":"claimHouseFees","inputs":[{"name":"to","type":"address","internalType":"address"}],"outputs":[],"stateMutability":"nonpayable"},{"type":"function","name":"commitMove","inputs":[{"name":"runId","type":"uint256","internalType":"uint256"},{"name":"commitHash","type":"bytes32","internalType":"bytes32"}],"outputs":[],"stateMutability":"nonpayable"},{"type":"function","name":"getTile","inputs":[{"name":"x","type":"uint8","internalType":"uint8"},{"name":"y","type":"uint8","internalType":"uint8"}],"outputs":[{"name":"","type":"uint8","internalType":"uint8"}],"stateMutability":"pure"},{"type":"function","name":"houseFees","inputs":[],"outputs":[{"name":"","type":"uint256","internalType":"uint256"}],"stateMutability":"view"},{"type":"function","name":"levels","inputs":[{"name":"","type":"uint256","internalType":"uint256"}],"outputs":[{"name":"","type":"bytes","internalType":"bytes"}],"stateMutability":"view"},{"type":"function","name":"nextRunId","inputs":[],"outputs":[{"name":"","type":"uint256","internalType":"uint256"}],"stateMutability":"view"},{"type":"function","name":"owner","inputs":[],"outputs":[{"name":"","type":"address","internalType":"address"}],"stateMutability":"view"},{"type":"function","name":"pause","inputs":[],"outputs":[],"stateMutability":"nonpayable"},{"type":"function","name":"paused","inputs":[],"outputs":[{"name":"","type":"bool","internalType":"bool"}],"stateMutability":"view"},{"type":"function","name":"renounceOwnership","inputs":[],"outputs":[],"stateMutability":"nonpayable"},{"type":"function","name":"revealAndAdvance","inputs":[{"name":"runId","type":"uint256","internalType":"uint256"},{"name":"move","type":"uint8","internalType":"enum CaptainDownBad.Move"},{"name":"salt","type":"bytes32","internalType":"bytes32"}],"outputs":[],"stateMutability":"nonpayable"},{"type":"function","name":"runs","inputs":[{"name":"","type":"uint256","internalType":"uint256"}],"outputs":[{"name":"player","type":"address","internalType":"address"},{"name":"levelId","type":"uint256","internalType":"uint256"},{"name":"bet","type":"uint256","internalType":"uint256"},{"name":"tick","type":"uint256","internalType":"uint256"},{"name":"revealDeadline","type":"uint256","internalType":"uint256"},{"name":"commit","type":"bytes32","internalType":"bytes32"},{"name":"playerState","type":"uint256","internalType":"uint256"},{"name":"active","type":"bool","internalType":"bool"},{"name":"finalScore","type":"uint256","internalType":"uint256"}],"stateMutability":"view"},{"type":"function","name":"setLevel","inputs":[{"name":"levelId","type":"uint256","internalType":"uint256"},{"name":"tileData","type":"bytes","internalType":"bytes"}],"outputs":[],"stateMutability":"nonpayable"},{"type":"function","name":"startRun","inputs":[{"name":"bet","type":"uint256","internalType":"uint256"},{"name":"levelId","type":"uint256","internalType":"uint256"}],"outputs":[],"stateMutability":"nonpayable"},{"type":"function","name":"transferOwnership","inputs":[{"name":"newOwner","type":"address","internalType":"address"}],"outputs":[],"stateMutability":"nonpayable"},{"type":"function","name":"unpause","inputs":[],"outputs":[],"stateMutability":"nonpayable"},{"type":"event","name":"GemCollected","inputs":[{"name":"runId","type":"uint256","indexed":true,"internalType":"uint256"},{"name":"posX","type":"uint8","indexed":false,"internalType":"uint8"},{"name":"posY","type":"uint8","indexed":false,"internalType":"uint8"},{"name":"newScore","type":"uint256","indexed":false,"internalType":"uint256"}],"anonymous":false},{"type":"event","name":"HouseFeesClaimed","inputs":[{"name":"to","type":"address","indexed":true,"internalType":"address"},{"name":"amount","type":"uint256","indexed":false,"internalType":"uint256"}],"anonymous":false},{"type":"event","name":"LevelSet","inputs":[{"name":"levelId","type":"uint256","indexed":true,"internalType":"uint256"}],"anonymous":false},{"type":"event","name":"MoveCommitted","inputs":[{"name":"runId","type":"uint256","indexed":true,"internalType":"uint256"},{"name":"tick","type":"uint256","indexed":false,"internalType":"uint256"},{"name":"commitHash","type":"bytes32","indexed":false,"internalType":"bytes32"}],"anonymous":false},{"type":"event","name":"MoveRevealed","inputs":[{"name":"runId","type":"uint256","indexed":true,"internalType":"uint256"},{"name":"tick","type":"uint256","indexed":false,"internalType":"uint256"},{"name":"move","type":"uint8","indexed":false,"internalType":"enum CaptainDownBad.Move"}],"anonymous":false},{"type":"event","name":"OwnershipTransferred","inputs":[{"name":"previousOwner","type":"address","indexed":true,"internalType":"address"},{"name":"newOwner","type":"address","indexed":true,"internalType":"address"}],"anonymous":false},{"type":"event","name":"Paused","inputs":[{"name":"account","type":"address","indexed":false,"internalType":"address"}],"anonymous":false},{"type":"event","name":"RunEnded","inputs":[{"name":"runId","type":"uint256","indexed":true,"internalType":"uint256"},{"name":"player","type":"address","indexed":true,"internalType":"address"},{"name":"payout","type":"uint256","indexed":false,"internalType":"uint256"},{"name":"finalScore","type":"uint256","indexed":false,"internalType":"uint256"},{"name":"won","type":"bool","indexed":false,"internalType":"bool"}],"anonymous":false},{"type":"event","name":"RunStarted","inputs":[{"name":"runId","type":"uint256","indexed":true,"internalType":"uint256"},{"name":"player","type":"address","indexed":true,"internalType":"address"},{"name":"bet","type":"uint256","indexed":false,"internalType":"uint256"},{"name":"levelId","type":"uint256","indexed":false,"internalType":"uint256"}],"anonymous":false},{"type":"event","name":"TickAdvanced","inputs":[{"name":"runId","type":"uint256","indexed":true,"internalType":"uint256"},{"name":"tick","type":"uint256","indexed":false,"internalType":"uint256"},{"name":"playerState","type":"uint256","indexed":false,"internalType":"uint256"}],"anonymous":false},{"type":"event","name":"Unpaused","inputs":[{"name":"account","type":"address","indexed":false,"internalType":"address"}],"anonymous":false},{"type":"error","name":"EnforcedPause","inputs":[]},{"type":"error","name":"ExpectedPause","inputs":[]},{"type":"error","name":"OwnableInvalidOwner","inputs":[{"name":"owner","type":"address","internalType":"address"}]},{"type":"error","name":"OwnableUnauthorizedAccount","inputs":[{"name":"account","type":"address","internalType":"address"}]},{"type":"error","name":"ReentrancyGuardReentrantCall","inputs":[]},{"type":"error","name":"SafeERC20FailedOperation","inputs":[{"name":"token","type":"address","internalType":"address"}]}],"bytecode":{"object":"0x60a060405234801561000f575f5ffd5b5060405161391a38038061391a83398181016040528101906100319190610262565b81600161005061004561011160201b60201c565b61013a60201b60201c565b5f01819055505f73ffffffffffffffffffffffffffffffffffffffff168173ffffffffffffffffffffffffffffffffffffffff16036100c6575f6040517f1e4fbdf70000000000000000000000000000000000000000000000000000000081526004016100bd91906102af565b60405180910390fd5b6100d58161014360201b60201c565b508073ffffffffffffffffffffffffffffffffffffffff1660808173ffffffffffffffffffffffffffffffffffffffff168152505050506102c8565b5f7f9b779b17422d0df92223018b32b4d1fa46e071723d6817e2486d003becc55f005f1b905090565b5f819050919050565b5f5f5f9054906101000a900473ffffffffffffffffffffffffffffffffffffffff169050815f5f6101000a81548173ffffffffffffffffffffffffffffffffffffffff021916908373ffffffffffffffffffffffffffffffffffffffff1602179055508173ffffffffffffffffffffffffffffffffffffffff168173ffffffffffffffffffffffffffffffffffffffff167f8be0079c531659141344cd1fd0a4f28419497f9722a3daafe3b4186f6b6457e060405160405180910390a35050565b5f5ffd5b5f73ffffffffffffffffffffffffffffffffffffffff82169050919050565b5f61023182610208565b9050919050565b61024181610227565b811461024b575f5ffd5b50565b5f8151905061025c81610238565b92915050565b5f5f6040838503121561027857610277610204565b5b5f6102858582860161024e565b92505060206102968582860161024e565b9150509250929050565b6102a981610227565b82525050565b5f6020820190506102c25f8301846102a0565b92915050565b60805161361e6102fc5f395f818161057301528181610a8701528181610ba501528181611d8e0152611e65015261361e5ff3fe608060405234801561000f575f5ffd5b50600436106101cd575f3560e01c80638456cb5911610102578063ae66f57c116100a0578063d77314a81161006f578063d77314a8146104b7578063e0b30da1146104d3578063f2fde38b146104f1578063fd46286d1461050d576101cd565b8063ae66f57c14610413578063b2596a671461044b578063cd2d944f1461047b578063cde98d4414610499576101cd565b806394e7ecfb116100dc57806394e7ecfb1461039d57806398e31899146103bb578063a39c5ac1146103d7578063a9a5aaa7146103f5576101cd565b80638456cb591461035757806389a30271146103615780638da5cb5b1461037f576101cd565b80633f4ba83a1161016f578063602d829811610149578063602d8298146102f557806361fcdfe1146103135780636637e38c1461032f578063715018a61461034d576101cd565b80633f4ba83a146102af57806350cfea25146102b95780635c975abb146102d7576101cd565b80631594b256116101ab5780631594b2561461023b57806317e931cf1461025957806326826f62146102775780632acf8fcc14610293576101cd565b80630232e52f146101d1578063085d40db146101ef57806313668a0f1461020b575b5f5ffd5b6101d961052b565b6040516101e69190612147565b60405180910390f35b610209600480360381019061020491906121c2565b61054f565b005b61022560048036038101906102209190612223565b610611565b6040516102329190612270565b60405180910390f35b61024361069e565b60405161025091906122a1565b60405180910390f35b6102616106a3565b60405161026e91906122a1565b60405180910390f35b610291600480360381019061028c9190612317565b6106a8565b005b6102ad60048036038101906102a89190612355565b610859565b005b6102b761097c565b005b6102c161098e565b6040516102ce91906122a1565b60405180910390f35b6102df610993565b6040516102ec919061239a565b60405180910390f35b6102fd6109a8565b60405161030a91906122a1565b60405180910390f35b61032d60048036038101906103289190612414565b6109ad565b005b610337610a5a565b60405161034491906122a1565b60405180910390f35b610355610a60565b005b61035f610a73565b005b610369610a85565b60405161037691906124cc565b60405180910390f35b610387610aa9565b60405161039491906124f4565b60405180910390f35b6103a5610ad0565b6040516103b29190612270565b60405180910390f35b6103d560048036038101906103d0919061250d565b610ad5565b005b6103df610d81565b6040516103ec9190612147565b60405180910390f35b6103fd610d86565b60405161040a91906122a1565b60405180910390f35b61042d60048036038101906104289190612355565b610d8b565b6040516104429998979695949392919061255a565b60405180910390f35b61046560048036038101906104609190612355565b610e00565b6040516104729190612655565b60405180910390f35b610483610e9b565b60405161049091906122a1565b60405180910390f35b6104a1610ea1565b6040516104ae91906122a1565b60405180910390f35b6104d160048036038101906104cc9190612698565b610ea6565b005b6104db61110f565b6040516104e891906122a1565b60405180910390f35b61050b600480360381019061050691906121c2565b611114565b005b610515611198565b60405161052291906122a1565b60405180910390f35b7ffffffffffffffffffffffffffffffffffffffffffffffffffffffffffffffff881565b61055761119e565b61055f611225565b5f60055490505f6005819055506105b782827f000000000000000000000000000000000000000000000000000000000000000073ffffffffffffffffffffffffffffffffffffffff166112479092919063ffffffff16565b8173ffffffffffffffffffffffffffffffffffffffff167fd136955260da8e49f6429bfcfaf45702783ad1cc542ead11a662df921b99415c826040516105fd91906122a1565b60405180910390a25061060e61129a565b50565b5f602060ff168360ff1610158061062f5750601060ff168260ff1610155b1561063c575f9050610698565b60405180610220016040528061020081526020016133e961020091398360ff1660208460ff1661066c9190612715565b6106769190612756565b8151811061068757610686612789565b5b602001015160f81c60f81b60f81c90505b92915050565b606481565b600281565b6106b06112b4565b5f60015f8481526020019081526020015f209050806007015f9054906101000a900460ff16610714576040517f08c379a000000000000000000000000000000000000000000000000000000000815260040161070b90612810565b60405180910390fd5b3373ffffffffffffffffffffffffffffffffffffffff16815f015f9054906101000a900473ffffffffffffffffffffffffffffffffffffffff1673ffffffffffffffffffffffffffffffffffffffff16146107a4576040517f08c379a000000000000000000000000000000000000000000000000000000000815260040161079b90612878565b60405180910390fd5b5f5f1b8160050154146107ec576040517f08c379a00000000000000000000000000000000000000000000000000000000081526004016107e3906128e0565b60405180910390fd5b8181600501819055506002603c6108039190612715565b4261080e9190612756565b8160040181905550827f137d6c12e02b159dfae380fa1bf3be8d508bb4486ae9e99c88ac8c21a1fe637e82600301548460405161084c9291906128fe565b60405180910390a2505050565b610861611225565b6108696112b4565b5f60015f8381526020019081526020015f209050806007015f9054906101000a900460ff166108cd576040517f08c379a00000000000000000000000000000000000000000000000000000000081526004016108c490612810565b60405180910390fd5b5f5f1b816005015403610915576040517f08c379a000000000000000000000000000000000000000000000000000000000815260040161090c9061296f565b60405180910390fd5b8060040154421161095b576040517f08c379a0000000000000000000000000000000000000000000000000000000008152600401610952906129d7565b60405180910390fd5b5f5f1b8160050181905550610970825f6112f5565b5061097961129a565b50565b61098461119e565b61098c6117b1565b565b606481565b5f5f60149054906101000a900460ff16905090565b606481565b6109b561119e565b601060206109c39190612715565b8282905014610a07576040517f08c379a00000000000000000000000000000000000000000000000000000000081526004016109fe90612a3f565b60405180910390fd5b818160035f8681526020019081526020015f209182610a27929190612c99565b50827f2c279db77e6fa6323ac04a9b082958300b7e000b96e359f45fdbd65b59f03ca560405160405180910390a2505050565b61271081565b610a6861119e565b610a715f611812565b565b610a7b61119e565b610a836118d3565b565b7f000000000000000000000000000000000000000000000000000000000000000081565b5f5f5f9054906101000a900473ffffffffffffffffffffffffffffffffffffffff16905090565b600381565b610add611225565b610ae56112b4565b5f8211610b27576040517f08c379a0000000000000000000000000000000000000000000000000000000008152600401610b1e90612db0565b60405180910390fd5b5f811480610b5e575060106020610b3e9190612715565b60035f8381526020019081526020015f208054610b5a90612ac1565b9050145b610b9d576040517f08c379a0000000000000000000000000000000000000000000000000000000008152600401610b9490612e18565b60405180910390fd5b610bea3330847f000000000000000000000000000000000000000000000000000000000000000073ffffffffffffffffffffffffffffffffffffffff16611935909392919063ffffffff16565b5f60025f815480929190610bfd90612e36565b9190505590506040518061012001604052803373ffffffffffffffffffffffffffffffffffffffff1681526020018381526020018481526020015f81526020015f81526020015f5f1b8152602001610c5361198a565b81526020016001151581526020015f81525060015f8381526020019081526020015f205f820151815f015f6101000a81548173ffffffffffffffffffffffffffffffffffffffff021916908373ffffffffffffffffffffffffffffffffffffffff1602179055506020820151816001015560408201518160020155606082015181600301556080820151816004015560a0820151816005015560c0820151816006015560e0820151816007015f6101000a81548160ff02191690831515021790555061010082015181600801559050503373ffffffffffffffffffffffffffffffffffffffff16817f47af21466bd64f70ac777cbd17750a886319a9793825e902882d3bae3d5226028585604051610d6c929190612e7d565b60405180910390a350610d7d61129a565b5050565b600481565b601081565b6001602052805f5260405f205f91509050805f015f9054906101000a900473ffffffffffffffffffffffffffffffffffffffff1690806001015490806002015490806003015490806004015490806005015490806006015490806007015f9054906101000a900460ff16908060080154905089565b6003602052805f5260405f205f915090508054610e1c90612ac1565b80601f0160208091040260200160405190810160405280929190818152602001828054610e4890612ac1565b8015610e935780601f10610e6a57610100808354040283529160200191610e93565b820191905f5260205f20905b815481529060010190602001808311610e7657829003601f168201915b505050505081565b60025481565b603c81565b610eae611225565b610eb66112b4565b5f60015f8581526020019081526020015f209050806007015f9054906101000a900460ff16610f1a576040517f08c379a0000000000000000000000000000000000000000000000000000000008152600401610f1190612810565b60405180910390fd5b3373ffffffffffffffffffffffffffffffffffffffff16815f015f9054906101000a900473ffffffffffffffffffffffffffffffffffffffff1673ffffffffffffffffffffffffffffffffffffffff1614610faa576040517f08c379a0000000000000000000000000000000000000000000000000000000008152600401610fa190612878565b60405180910390fd5b5f5f1b816005015403610ff2576040517f08c379a0000000000000000000000000000000000000000000000000000000008152600401610fe990612eee565b60405180910390fd5b8060040154421115611039576040517f08c379a000000000000000000000000000000000000000000000000000000000815260040161103090612f56565b60405180910390fd5b5f83833360405160200161104f93929190613071565b604051602081830303815290604052805190602001209050808260050154146110ad576040517f08c379a00000000000000000000000000000000000000000000000000000000081526004016110a4906130f7565b60405180910390fd5b5f5f1b8260050181905550847fdfad295ee51a9fa7cee589ccdee3d59d9336ca44ce0ebddc621b97104bcc50618360030154866040516110ee929190613124565b60405180910390a261110085856112f5565b505061110a61129a565b505050565b602081565b61111c61119e565b5f73ffffffffffffffffffffffffffffffffffffffff168173ffffffffffffffffffffffffffffffffffffffff160361118c575f6040517f1e4fbdf700000000000000000000000000000000000000000000000000000000815260040161118391906124f4565b60405180910390fd5b61119581611812565b50565b60055481565b6111a66119a1565b73ffffffffffffffffffffffffffffffffffffffff166111c4610aa9565b73ffffffffffffffffffffffffffffffffffffffff1614611223576111e76119a1565b6040517f118cdaa700000000000000000000000000000000000000000000000000000000815260040161121a91906124f4565b60405180910390fd5b565b61122d6119a8565b600261123f61123a6119e9565b611a12565b5f0181905550565b6112548383836001611a1b565b61129557826040517f5274afe700000000000000000000000000000000000000000000000000000000815260040161128c91906124f4565b60405180910390fd5b505050565b60016112ac6112a76119e9565b611a12565b5f0181905550565b6112bc610993565b156112f3576040517fd93c066500000000000000000000000000000000000000000000000000000000815260040160405180910390fd5b565b5f60015f8481526020019081526020015f2090505f816006015490505f61131b82611a7d565b90505f61132783611a8a565b90505f61133384611a97565b90505f61133f85611aa4565b90505f61134b86611ab1565b90505f61135787611abe565b90506001600581111561136d5761136c612f74565b5b8960058111156113805761137f612f74565b5b14801561138f57505f8660ff16115b156113a357858061139f9061314b565b9650505b600260058111156113b7576113b6612f74565b5b8960058111156113ca576113c9612f74565b5b1480156113e95750600160206113e09190613172565b60ff168660ff16105b156113fd5785806113f9906131a5565b9650505b6003600581111561141157611410612f74565b5b89600581111561142457611423612f74565b5b14801561143257505f845f0b145b1561143c57600493505b8380600190039450507ffffffffffffffffffffffffffffffffffffffffffffffffffffffffffffffff85f0b845f0b1215611495577ffffffffffffffffffffffffffffffffffffffffffffffffffffffffffffffff893505b5f8590505f855f0b8760ff166114ab91906131d9565b90505f8160010b12156114bc575f90505b601060010b8160010b126114db57600160106114d89190613172565b90505b8096505f6114ea8d8a8a611ad2565b9050600160ff168160ff1603611505578297505f965061164b565b600260ff168160ff1603611577576064846115209190613244565b935061152d8d8a8a611c1e565b8c7f10968b3c1b381d94bcfe51c020b51c2c0acac4622fea3c3b545efee574263ea28a8a8766ffffffffffffff1660405161156a9392919061327e565b60405180910390a261164a565b600360ff168160ff16036115a4575f8660ff16111561159f57858061159b9061314b565b9650505b611649565b600460ff168160ff160361164857600460058111156115c6576115c5612f74565b5b8c60058111156115d9576115d8612f74565b5b148061160857506005808111156115f3576115f2612f74565b5b8c600581111561160657611605612f74565b5b145b1561162c5760648461161a9190613244565b93506116278d8a8a611c1e565b611647565b5f8660ff1611156116465785806116429061314b565b9650505b5b5b5b5b5b6004600581111561165f5761165e612f74565b5b8c600581111561167257611671612f74565b5b14806116a1575060058081111561168c5761168b612f74565b5b8c600581111561169f5761169e612f74565b5b145b156116c25760046001866116b591906132b3565b6116bf9190613314565b94505b6116d0898989898989611c78565b9950898b600601819055508a6003015f8154809291906116ef90612e36565b91905055508c7fa87efc2c8e236a265a0c0b1a78f8bcf11c1cba3835e5ed0742e29faa45d686ad8c600301548c60405161172a929190612e7d565b60405180910390a25f8660ff1603611756576117468d5f611cbc565b50505050505050505050506117ad565b5f60015f8f81526020019081526020015f20600101541480156117815750600461177f8e611f4e565b145b156117a1576117918d6001611cbc565b50505050505050505050506117ad565b50505050505050505050505b5050565b6117b9612060565b5f5f60146101000a81548160ff0219169083151502179055507f5db9ee0a495bf2e6ff9c91a7834c1ba4fdd244a5e8aa4e537bd38aeae4b073aa6117fb6119a1565b60405161180891906124f4565b60405180910390a1565b5f5f5f9054906101000a900473ffffffffffffffffffffffffffffffffffffffff169050815f5f6101000a81548173ffffffffffffffffffffffffffffffffffffffff021916908373ffffffffffffffffffffffffffffffffffffffff1602179055508173ffffffffffffffffffffffffffffffffffffffff168173ffffffffffffffffffffffffffffffffffffffff167f8be0079c531659141344cd1fd0a4f28419497f9722a3daafe3b4186f6b6457e060405160405180910390a35050565b6118db6112b4565b60015f60146101000a81548160ff0219169083151502179055507f62e78cea01bee320cd4e420270b5ea74000d11b0c9f74754ebdbfc544b05a25861191e6119a1565b60405161192b91906124f4565b60405180910390a1565b6119438484848460016120a0565b61198457836040517f5274afe700000000000000000000000000000000000000000000000000000000815260040161197b91906124f4565b60405180910390fd5b50505050565b5f61199c6002600e5f60035f5f611c78565b905090565b5f33905090565b6119b0612111565b156119e7576040517f3ee5aeb500000000000000000000000000000000000000000000000000000000815260040160405180910390fd5b565b5f7f9b779b17422d0df92223018b32b4d1fa46e071723d6817e2486d003becc55f005f1b905090565b5f819050919050565b5f5f63a9059cbb60e01b9050604051815f525f1960601c86166004528460245260205f60445f5f8b5af1925060015f51148316611a6f578383151615611a63573d5f823e3d81fd5b5f873b113d1516831692505b806040525050949350505050565b5f60f882901c9050919050565b5f60f082901c9050919050565b5f60e882901c9050919050565b5f60e082901c9050919050565b5f60d882901c9050919050565b5f66ffffffffffffff801682169050919050565b5f5f8360ff1660208460ff16611ae89190612715565b611af29190612756565b905060045f8681526020019081526020015f205f8281526020019081526020015f205f9054906101000a900460ff1615611b2f575f915050611c17565b5f60035f60015f8981526020019081526020015f206001015481526020019081526020015f20905060106020611b659190612715565b818054611b7190612ac1565b905003611be35780828154611b8590612ac1565b8110611b9457611b93612789565b5b815460011615611bb157905f5260205f2090602091828204019190065b9054901a7f01000000000000000000000000000000000000000000000000000000000000000260f81c92505050611c17565b5f60015f8881526020019081526020015f206001015403611c1157611c088585610611565b92505050611c17565b5f925050505b9392505050565b600160045f8581526020019081526020015f205f8460ff1660208560ff16611c469190612715565b611c509190612756565b81526020019081526020015f205f6101000a81548160ff021916908315150217905550505050565b5f8166ffffffffffffff1660d88460ff16901b60e08660ff16901b60e88860ff16901b60f08a60ff16901b60f88c60ff16901b171717171790509695505050505050565b5f60015f8481526020019081526020015f2090505f816007015f6101000a81548160ff021916908315150217905550611cf88160060154611abe565b66ffffffffffffff1681600801819055505f8215611eb2575f8260080154612710611d239190612756565b90505f612710828560020154611d399190612715565b611d439190613344565b90505f612710606483611d569190612715565b611d609190613344565b90508082611d6e9190613172565b93508060055f828254611d819190612756565b925050819055505f6005547f000000000000000000000000000000000000000000000000000000000000000073ffffffffffffffffffffffffffffffffffffffff166370a08231306040518263ffffffff1660e01b8152600401611de591906124f4565b602060405180830381865afa158015611e00573d5f5f3e3d5ffd5b505050506040513d601f19601f82011682018060405250810190611e249190613388565b611e2e9190613172565b905080851115611e3c578094505b611ea9865f015f9054906101000a900473ffffffffffffffffffffffffffffffffffffffff16867f000000000000000000000000000000000000000000000000000000000000000073ffffffffffffffffffffffffffffffffffffffff166112479092919063ffffffff16565b50505050611ecf565b816002015460055f828254611ec79190612756565b925050819055505b815f015f9054906101000a900473ffffffffffffffffffffffffffffffffffffffff1673ffffffffffffffffffffffffffffffffffffffff16847fa327ec80c1f8c18f1abd838d617040a972c16f3b617be63fbfe7046355ba8a1783856008015487604051611f40939291906133b3565b60405180910390a350505050565b5f60045f8381526020019081526020015f205f61010a81526020019081526020015f205f9054906101000a900460ff1615611f92578080611f8e90612e36565b9150505b60045f8381526020019081526020015f205f61010c81526020019081526020015f205f9054906101000a900460ff1615611fd5578080611fd190612e36565b9150505b60045f8381526020019081526020015f205f61015281526020019081526020015f205f9054906101000a900460ff161561201857808061201490612e36565b9150505b60045f8381526020019081526020015f205f61015481526020019081526020015f205f9054906101000a900460ff161561205b57808061205790612e36565b9150505b919050565b612068610993565b61209e576040517f8dfc202b00000000000000000000000000000000000000000000000000000000815260040160405180910390fd5b565b5f5f6323b872dd60e01b9050604051815f525f1960601c87166004525f1960601c86166024528460445260205f60645f5f8c5af1925060015f511483166120fe5783831516156120f2573d5f823e3d81fd5b5f883b113d1516831692505b806040525f606052505095945050505050565b5f600261212461211f6119e9565b611a12565b5f015414905090565b5f815f0b9050919050565b6121418161212d565b82525050565b5f60208201905061215a5f830184612138565b92915050565b5f5ffd5b5f5ffd5b5f73ffffffffffffffffffffffffffffffffffffffff82169050919050565b5f61219182612168565b9050919050565b6121a181612187565b81146121ab575f5ffd5b50565b5f813590506121bc81612198565b92915050565b5f602082840312156121d7576121d6612160565b5b5f6121e4848285016121ae565b91505092915050565b5f60ff82169050919050565b612202816121ed565b811461220c575f5ffd5b50565b5f8135905061221d816121f9565b92915050565b5f5f6040838503121561223957612238612160565b5b5f6122468582860161220f565b92505060206122578582860161220f565b9150509250929050565b61226a816121ed565b82525050565b5f6020820190506122835f830184612261565b92915050565b5f819050919050565b61229b81612289565b82525050565b5f6020820190506122b45f830184612292565b92915050565b6122c381612289565b81146122cd575f5ffd5b50565b5f813590506122de816122ba565b92915050565b5f819050919050565b6122f6816122e4565b8114612300575f5ffd5b50565b5f81359050612311816122ed565b92915050565b5f5f6040838503121561232d5761232c612160565b5b5f61233a858286016122d0565b925050602061234b85828601612303565b9150509250929050565b5f6020828403121561236a57612369612160565b5b5f612377848285016122d0565b91505092915050565b5f8115159050919050565b61239481612380565b82525050565b5f6020820190506123ad5f83018461238b565b92915050565b5f5ffd5b5f5ffd5b5f5ffd5b5f5f83601f8401126123d4576123d36123b3565b5b8235905067ffffffffffffffff8111156123f1576123f06123b7565b5b60208301915083600182028301111561240d5761240c6123bb565b5b9250929050565b5f5f5f6040848603121561242b5761242a612160565b5b5f612438868287016122d0565b935050602084013567ffffffffffffffff81111561245957612458612164565b5b612465868287016123bf565b92509250509250925092565b5f819050919050565b5f61249461248f61248a84612168565b612471565b612168565b9050919050565b5f6124a58261247a565b9050919050565b5f6124b68261249b565b9050919050565b6124c6816124ac565b82525050565b5f6020820190506124df5f8301846124bd565b92915050565b6124ee81612187565b82525050565b5f6020820190506125075f8301846124e5565b92915050565b5f5f6040838503121561252357612522612160565b5b5f612530858286016122d0565b9250506020612541858286016122d0565b9150509250929050565b612554816122e4565b82525050565b5f6101208201905061256e5f83018c6124e5565b61257b602083018b612292565b612588604083018a612292565b6125956060830189612292565b6125a26080830188612292565b6125af60a083018761254b565b6125bc60c0830186612292565b6125c960e083018561238b565b6125d7610100830184612292565b9a9950505050505050505050565b5f81519050919050565b5f82825260208201905092915050565b8281835e5f83830152505050565b5f601f19601f8301169050919050565b5f612627826125e5565b61263181856125ef565b93506126418185602086016125ff565b61264a8161260d565b840191505092915050565b5f6020820190508181035f83015261266d818461261d565b905092915050565b60068110612681575f5ffd5b50565b5f8135905061269281612675565b92915050565b5f5f5f606084860312156126af576126ae612160565b5b5f6126bc868287016122d0565b93505060206126cd86828701612684565b92505060406126de86828701612303565b9150509250925092565b7f4e487b71000000000000000000000000000000000000000000000000000000005f52601160045260245ffd5b5f61271f82612289565b915061272a83612289565b925082820261273881612289565b9150828204841483151761274f5761274e6126e8565b5b5092915050565b5f61276082612289565b915061276b83612289565b9250828201905080821115612783576127826126e8565b5b92915050565b7f4e487b71000000000000000000000000000000000000000000000000000000005f52603260045260245ffd5b5f82825260208201905092915050565b7f4344423a20696e616374697665000000000000000000000000000000000000005f82015250565b5f6127fa600d836127b6565b9150612805826127c6565b602082019050919050565b5f6020820190508181035f830152612827816127ee565b9050919050565b7f4344423a206e6f7420796f75722072756e0000000000000000000000000000005f82015250565b5f6128626011836127b6565b915061286d8261282e565b602082019050919050565b5f6020820190508181035f83015261288f81612856565b9050919050565b7f4344423a20616c726561647920636f6d6d6974746564000000000000000000005f82015250565b5f6128ca6016836127b6565b91506128d582612896565b602082019050919050565b5f6020820190508181035f8301526128f7816128be565b9050919050565b5f6040820190506129115f830185612292565b61291e602083018461254b565b9392505050565b7f4344423a206e6f2070656e64696e6720636f6d6d6974000000000000000000005f82015250565b5f6129596016836127b6565b915061296482612925565b602082019050919050565b5f6020820190508181035f8301526129868161294d565b9050919050565b7f4344423a2077696e646f77207374696c6c206f70656e000000000000000000005f82015250565b5f6129c16016836127b6565b91506129cc8261298d565b602082019050919050565b5f6020820190508181035f8301526129ee816129b5565b9050919050565b7f4344423a2077726f6e67206c6576656c2073697a6500000000000000000000005f82015250565b5f612a296015836127b6565b9150612a34826129f5565b602082019050919050565b5f6020820190508181035f830152612a5681612a1d565b9050919050565b5f82905092915050565b7f4e487b71000000000000000000000000000000000000000000000000000000005f52604160045260245ffd5b7f4e487b71000000000000000000000000000000000000000000000000000000005f52602260045260245ffd5b5f6002820490506001821680612ad857607f821691505b602082108103612aeb57612aea612a94565b5b50919050565b5f819050815f5260205f209050919050565b5f6020601f8301049050919050565b5f82821b905092915050565b5f60088302612b4d7fffffffffffffffffffffffffffffffffffffffffffffffffffffffffffffffff82612b12565b612b578683612b12565b95508019841693508086168417925050509392505050565b5f612b89612b84612b7f84612289565b612471565b612289565b9050919050565b5f819050919050565b612ba283612b6f565b612bb6612bae82612b90565b848454612b1e565b825550505050565b5f5f905090565b612bcd612bbe565b612bd8818484612b99565b505050565b5f5b82811015612bfe57612bf35f828401612bc5565b600181019050612bdf565b505050565b601f821115612c515782821115612c5057612c1d81612af1565b612c2683612b03565b612c2f85612b03565b6020861015612c3c575f90505b808301612c4b82840382612bdd565b505050505b5b505050565b5f82821c905092915050565b5f612c715f1984600802612c56565b1980831691505092915050565b5f612c898383612c62565b9150826002028217905092915050565b612ca38383612a5d565b67ffffffffffffffff811115612cbc57612cbb612a67565b5b612cc68254612ac1565b612cd1828285612c03565b5f601f831160018114612cfe575f8415612cec578287013590505b612cf68582612c7e565b865550612d5d565b601f198416612d0c86612af1565b5f5b82811015612d3357848901358255600182019150602085019450602081019050612d0e565b86831015612d505784890135612d4c601f891682612c62565b8355505b6001600288020188555050505b50505050505050565b7f4344423a206265743d30000000000000000000000000000000000000000000005f82015250565b5f612d9a600a836127b6565b9150612da582612d66565b602082019050919050565b5f6020820190508181035f830152612dc781612d8e565b9050919050565b7f4344423a206c6576656c206e6f742073657400000000000000000000000000005f82015250565b5f612e026012836127b6565b9150612e0d82612dce565b602082019050919050565b5f6020820190508181035f830152612e2f81612df6565b9050919050565b5f612e4082612289565b91507fffffffffffffffffffffffffffffffffffffffffffffffffffffffffffffffff8203612e7257612e716126e8565b5b600182019050919050565b5f604082019050612e905f830185612292565b612e9d6020830184612292565b9392505050565b7f4344423a206e6f20636f6d6d69740000000000000000000000000000000000005f82015250565b5f612ed8600e836127b6565b9150612ee382612ea4565b602082019050919050565b5f6020820190508181035f830152612f0581612ecc565b9050919050565b7f4344423a2072657665616c2065787069726564000000000000000000000000005f82015250565b5f612f406013836127b6565b9150612f4b82612f0c565b602082019050919050565b5f6020820190508181035f830152612f6d81612f34565b9050919050565b7f4e487b71000000000000000000000000000000000000000000000000000000005f52602160045260245ffd5b60068110612fb257612fb1612f74565b5b50565b5f819050612fc282612fa1565b919050565b5f612fd182612fb5565b9050919050565b5f8160f81b9050919050565b5f612fee82612fd8565b9050919050565b61300661300182612fc7565b612fe4565b82525050565b5f819050919050565b613026613021826122e4565b61300c565b82525050565b5f8160601b9050919050565b5f6130428261302c565b9050919050565b5f61305382613038565b9050919050565b61306b61306682612187565b613049565b82525050565b5f61307c8286612ff5565b60018201915061308c8285613015565b60208201915061309c828461305a565b601482019150819050949350505050565b7f4344423a20636f6d6d6974206d69736d617463680000000000000000000000005f82015250565b5f6130e16014836127b6565b91506130ec826130ad565b602082019050919050565b5f6020820190508181035f83015261310e816130d5565b9050919050565b61311e81612fc7565b82525050565b5f6040820190506131375f830185612292565b6131446020830184613115565b9392505050565b5f613155826121ed565b91505f8203613167576131666126e8565b5b600182039050919050565b5f61317c82612289565b915061318783612289565b925082820390508181111561319f5761319e6126e8565b5b92915050565b5f6131af826121ed565b915060ff82036131c2576131c16126e8565b5b600182019050919050565b5f8160010b9050919050565b5f6131e3826131cd565b91506131ee836131cd565b92508282039050617fff81137fffffffffffffffffffffffffffffffffffffffffffffffffffffffffffff80008212171561322c5761322b6126e8565b5b92915050565b5f66ffffffffffffff82169050919050565b5f61324e82613232565b915061325983613232565b9250828201905066ffffffffffffff811115613278576132776126e8565b5b92915050565b5f6060820190506132915f830186612261565b61329e6020830185612261565b6132ab6040830184612292565b949350505050565b5f6132bd826121ed565b91506132c8836121ed565b9250828201905060ff8111156132e1576132e06126e8565b5b92915050565b7f4e487b71000000000000000000000000000000000000000000000000000000005f52601260045260245ffd5b5f61331e826121ed565b9150613329836121ed565b925082613339576133386132e7565b5b828206905092915050565b5f61334e82612289565b915061335983612289565b925082613369576133686132e7565b5b828204905092915050565b5f81519050613382816122ba565b92915050565b5f6020828403121561339d5761339c612160565b5b5f6133aa84828501613374565b91505092915050565b5f6060820190506133c65f830186612292565b6133d36020830185612292565b6133e0604083018461238b565b94935050505056fe0000000000000000000000000000000000000000000000000000000000000000000000000000000000000000000000000000000000000000000000000000000000000000000000000000000000000000000000000000000000000000000000000000000000000000000000000000000000000000000000000000000000000000000000000000000000000000000000000000000000000000000000000000000000000000000000000000000000000000000000000000000000000000000000000000000000000000000000000000000000000000000000000000000000000000000000000000000000000000000000000000000000000000000000000000000000000000000000000400020002000000000000000000000000000000000000000000000000000000010101010101010000000000000000000000000000000000000000000000000000000000000000000000020002000000000000000000000000000000000000000000000000000000010101010101010000000000000000000000000000000000000000000000000000000000000000000000000000000000000000000000000000000000000000000000000000000000000000000000000000000000000300000000000000000004000000000000000000030000000000000101010101010101010101010101010101010101010101010101010101010101a2646970667358221220d6ca450f5c29fed7e81a44c000fa63620a34ffde277f23845fc34171ffdbc14664736f6c63430008210033","linkReferences":{}},"methodIdentifiers":{"BPS_DENOM()":"6637e38c","ENEMY_SCORE()":"50cfea25","GEM_SCORE()":"602d8298","HOUSE_FEE_BPS()":"1594b256","INITIAL_HEALTH()":"94e7ecfb","JUMP_IMPULSE()":"a39c5ac1","LEVEL_HEIGHT()":"a9a5aaa7","LEVEL_WIDTH()":"e0b30da1","REVEAL_WINDOW()":"17e931cf","TERMINAL_VELOCITY()":"0232e52f","TICK_DURATION()":"cde98d44","USDC()":"89a30271","advanceExpired(uint256)":"2acf8fcc","claimHouseFees(address)":"085d40db","commitMove(uint256,bytes32)":"26826f62","getTile(uint8,uint8)":"13668a0f","houseFees()":"fd46286d","levels(uint256)":"b2596a67","nextRunId()":"cd2d944f","owner()":"8da5cb5b","pause()":"8456cb59","paused()":"5c975abb","renounceOwnership()":"715018a6","revealAndAdvance(uint256,uint8,bytes32)":"d77314a8","runs(uint256)":"ae66f57c","setLevel(uint256,bytes)":"61fcdfe1","startRun(uint256,uint256)":"98e31899","transferOwnership(address)":"f2fde38b","unpause()":"3f4ba83a"},"id":32}